{
  "contractName": "IntegerStorage",
  "abi": [
    {
      "inputs": [
        {
          "internalType": "int256",
          "name": "_newValue",
          "type": "int256"
        }
      ],
      "name": "setValue",
      "outputs": [],
      "stateMutability": "nonpayable",
      "type": "function"
    },
    {
      "inputs": [],
      "name": "getValue",
      "outputs": [
        {
          "internalType": "int256",
          "name": "",
          "type": "int256"
        }
      ],
      "stateMutability": "view",
      "type": "function",
      "constant": true
    }
  ],
  "bytecode": "0x608060405234801561001057600080fd5b5061012f806100206000396000f3fe6080604052348015600f57600080fd5b506004361060325760003560e01c8063209652551460375780635093dc7d146051575b600080fd5b603d6069565b6040516048919060c2565b60405180910390f35b6067600480360381019060639190608f565b6072565b005b60008054905090565b8060008190555050565b60008135905060898160e5565b92915050565b60006020828403121560a057600080fd5b600060ac84828501607c565b91505092915050565b60bc8160db565b82525050565b600060208201905060d5600083018460b5565b92915050565b6000819050919050565b60ec8160db565b811460f657600080fd5b5056fea26469706673582212209330a7308481915e42f6094fe0e03db47d337e5d5a76950f1cbad05dacb412f464736f6c63430008000033",
  "immutableReferences": {},
  "source": "// SPDX-License-Identifier: MIT\n\npragma solidity >=0.8.0 <0.9.0;\n\ncontract IntegerStorage {\n    int private storageValue;\n\n    function setValue(int _newValue) public {\n        storageValue = _newValue;\n    }\n\n    function getValue() public view returns (int) {\n        return storageValue;\n    }\n}",
  "sourcePath": "/Users/keslerzhu/Documents/GitHub/testTruffle/contracts/testTruffle.sol",
  "compiler": {
    "name": "solc",
    "version": "0.8.0+commit.c7dfd78e.Emscripten.clang"
  },
  "schemaVersion": "3.4.16",
  "updatedAt": "2025-08-18T07:02:30.120Z",
  "networkType": "ethereum",
  "devdoc": {
    "kind": "dev",
    "methods": {},
    "version": 1
  },
  "userdoc": {
    "kind": "user",
    "methods": {},
    "version": 1
  }
}